{
  "_format": "hh-sol-artifact-1",
  "contractName": "StudentSocietyDAO",
  "sourceName": "contracts/StudentSocietyDAO.sol",
  "abi": [
    {
      "inputs": [],
      "stateMutability": "nonpayable",
      "type": "constructor"
    },
    {
      "anonymous": false,
      "inputs": [
        {
          "indexed": false,
          "internalType": "uint256",
          "name": "",
          "type": "uint256"
        }
      ],
      "name": "MyERC721",
      "type": "event"
    },
    {
      "anonymous": false,
      "inputs": [
        {
          "indexed": false,
          "internalType": "uint32",
          "name": "proposalIndex",
          "type": "uint32"
        }
      ],
      "name": "ProposalInitiated",
      "type": "event"
    },
    {
      "anonymous": false,
      "inputs": [
        {
          "indexed": false,
          "internalType": "address",
          "name": "",
          "type": "address"
        }
      ],
      "name": "StudentInitiated",
      "type": "event"
    },
    {
      "anonymous": false,
      "inputs": [
        {
          "indexed": false,
          "internalType": "uint256",
          "name": "Tokens",
          "type": "uint256"
        }
      ],
      "name": "TokenList",
      "type": "event"
    },
    {
      "inputs": [],
      "name": "MAKE_A_PROPOSAL",
      "outputs": [
        {
          "internalType": "uint32",
          "name": "",
          "type": "uint32"
        }
      ],
      "stateMutability": "view",
      "type": "function"
    },
    {
      "inputs": [],
      "name": "VOTE",
      "outputs": [
        {
          "internalType": "uint32",
          "name": "",
          "type": "uint32"
        }
      ],
      "stateMutability": "view",
      "type": "function"
    },
    {
      "inputs": [
        {
          "internalType": "uint32",
          "name": "id",
          "type": "uint32"
        }
      ],
      "name": "agreeProposal",
      "outputs": [],
      "stateMutability": "nonpayable",
      "type": "function"
    },
    {
      "inputs": [
        {
          "internalType": "uint32",
          "name": "id",
          "type": "uint32"
        }
      ],
      "name": "checkComplete",
      "outputs": [],
      "stateMutability": "nonpayable",
      "type": "function"
    },
    {
      "inputs": [],
      "name": "getBonus",
      "outputs": [
        {
          "internalType": "uint256",
          "name": "",
          "type": "uint256"
        }
      ],
      "stateMutability": "nonpayable",
      "type": "function"
    },
    {
      "inputs": [],
      "name": "getInformation",
      "outputs": [
        {
          "internalType": "uint256",
          "name": "",
          "type": "uint256"
        }
      ],
      "stateMutability": "nonpayable",
      "type": "function"
    },
    {
      "inputs": [],
      "name": "getKeepsake",
      "outputs": [],
      "stateMutability": "nonpayable",
      "type": "function"
    },
    {
      "inputs": [
        {
          "internalType": "uint32",
          "name": "id",
          "type": "uint32"
        }
      ],
      "name": "getResult",
      "outputs": [
        {
          "internalType": "string",
          "name": "",
          "type": "string"
        }
      ],
      "stateMutability": "nonpayable",
      "type": "function"
    },
    {
      "inputs": [],
      "name": "getToken",
      "outputs": [],
      "stateMutability": "nonpayable",
      "type": "function"
    },
    {
      "inputs": [],
      "name": "login",
      "outputs": [],
      "stateMutability": "nonpayable",
      "type": "function"
    },
    {
      "inputs": [
        {
          "internalType": "string",
          "name": "name",
          "type": "string"
        },
        {
          "internalType": "uint256",
          "name": "duration",
          "type": "uint256"
        }
      ],
      "name": "makeProposal",
      "outputs": [],
      "stateMutability": "nonpayable",
      "type": "function"
    },
    {
      "inputs": [],
      "name": "nextuuid",
      "outputs": [
        {
          "internalType": "uint32",
          "name": "",
          "type": "uint32"
        }
      ],
      "stateMutability": "view",
      "type": "function"
    },
    {
      "inputs": [
        {
          "internalType": "uint32",
          "name": "",
          "type": "uint32"
        }
      ],
      "name": "proposals",
      "outputs": [
        {
          "internalType": "bool",
          "name": "created",
          "type": "bool"
        },
        {
          "internalType": "uint32",
          "name": "index",
          "type": "uint32"
        },
        {
          "internalType": "address",
          "name": "proposer",
          "type": "address"
        },
        {
          "internalType": "uint256",
          "name": "startTime",
          "type": "uint256"
        },
        {
          "internalType": "uint256",
          "name": "duration",
          "type": "uint256"
        },
        {
          "internalType": "string",
          "name": "name",
          "type": "string"
        },
        {
          "internalType": "uint256",
          "name": "agree",
          "type": "uint256"
        },
        {
          "internalType": "uint256",
          "name": "reject",
          "type": "uint256"
        },
        {
          "internalType": "bool",
          "name": "complete",
          "type": "bool"
        }
      ],
      "stateMutability": "view",
      "type": "function"
    },
    {
      "inputs": [
        {
          "internalType": "uint32",
          "name": "id",
          "type": "uint32"
        }
      ],
      "name": "rejectProposal",
      "outputs": [],
      "stateMutability": "nonpayable",
      "type": "function"
    },
    {
      "inputs": [],
      "name": "studentERC20",
      "outputs": [
        {
          "internalType": "contract StudentToken",
          "name": "",
          "type": "address"
        }
      ],
      "stateMutability": "view",
      "type": "function"
    },
    {
      "inputs": [],
      "name": "studentERC721",
      "outputs": [
        {
          "internalType": "contract StudentItem",
          "name": "",
          "type": "address"
        }
      ],
      "stateMutability": "view",
      "type": "function"
    },
    {
      "inputs": [
        {
          "internalType": "address",
          "name": "",
          "type": "address"
        }
      ],
      "name": "users",
      "outputs": [
        {
          "internalType": "bool",
          "name": "exist",
          "type": "bool"
        },
        {
          "internalType": "address",
          "name": "userId",
          "type": "address"
        },
        {
          "internalType": "uint32",
          "name": "proposalId",
          "type": "uint32"
        },
        {
          "internalType": "uint8",
          "name": "successNum",
          "type": "uint8"
        },
        {
          "internalType": "uint32",
          "name": "total",
          "type": "uint32"
        },
        {
          "internalType": "uint256",
          "name": "tokenId",
          "type": "uint256"
        }
      ],
      "stateMutability": "view",
      "type": "function"
    }
  ],
  "bytecode": "0x60806040523480156200001157600080fd5b50621e8480604051620000249062000164565b620000309190620001d7565b604051809103906000f0801580156200004d573d6000803e3d6000fd5b506000806101000a81548173ffffffffffffffffffffffffffffffffffffffff021916908373ffffffffffffffffffffffffffffffffffffffff1602179055506040516200009b9062000172565b604051809103906000f080158015620000b8573d6000803e3d6000fd5b50600160006101000a81548173ffffffffffffffffffffffffffffffffffffffff021916908373ffffffffffffffffffffffffffffffffffffffff16021790555060018060146101000a81548163ffffffff021916908363ffffffff1602179055506014600160186101000a81548163ffffffff021916908363ffffffff16021790555060056001601c6101000a81548163ffffffff021916908363ffffffff160217905550620001f4565b6117af80620039f683390190565b61273480620051a583390190565b6000819050919050565b6000819050919050565b6000819050919050565b6000620001bf620001b9620001b38462000180565b62000194565b6200018a565b9050919050565b620001d1816200019e565b82525050565b6000602082019050620001ee6000830184620001c6565b92915050565b6137f280620002046000396000f3fe608060405234801561001057600080fd5b506004361061010b5760003560e01c80638bdff161116100a2578063b34e97e811610071578063b34e97e81461027d578063c0da1e6814610287578063cae96f39146102a5578063d5b353b5146102d5578063ebe57291146102f15761010b565b80638bdff161146101f057806392312f1b1461020e578063a87430ba1461022a578063aa4493961461025f5761010b565b80632a4910ab116100de5780632a4910ab146101725780633901d2d4146101aa5780636c3fbb2d146101c857806380a40beb146101e65761010b565b806309505ca6146101105780630f265e1a1461012c5780631d29f9711461014a57806321df0da714610168575b600080fd5b61012a6004803603810190610125919061287d565b61030d565b005b610134610794565b60405161014191906128b9565b60405180910390f35b6101526107aa565b60405161015f91906128b9565b60405180910390f35b6101706107c0565b005b61018c6004803603810190610187919061287d565b610871565b6040516101a1999897969594939291906129e2565b60405180910390f35b6101b2610991565b6040516101bf9190612ad5565b60405180910390f35b6101d06109b7565b6040516101dd9190612b11565b60405180910390f35b6101ee6109db565b005b6101f8610cf2565b6040516102059190612b2c565b60405180910390f35b6102286004803603810190610223919061287d565b61114b565b005b610244600480360381019061023f9190612b73565b6113ca565b60405161025696959493929190612bbc565b60405180910390f35b610267611460565b60405161027491906128b9565b60405180910390f35b610285611476565b005b61028f61176b565b60405161029c9190612b2c565b60405180910390f35b6102bf60048036038101906102ba919061287d565b61197c565b6040516102cc9190612c1d565b60405180910390f35b6102ef60048036038101906102ea919061287d565b611b2f565b005b61030b60048036038101906103069190612da0565b611fb6565b005b600360003373ffffffffffffffffffffffffffffffffffffffff1673ffffffffffffffffffffffffffffffffffffffff16815260200190815260200160002060000160009054906101000a900460ff1661039c576040517f08c379a000000000000000000000000000000000000000000000000000000000815260040161039390612e48565b60405180910390fd5b60011515600260008363ffffffff1663ffffffff16815260200190815260200160002060000160009054906101000a900460ff16151514610412576040517f08c379a000000000000000000000000000000000000000000000000000000000815260040161040990612eb4565b60405180910390fd5b3373ffffffffffffffffffffffffffffffffffffffff16600260008363ffffffff1663ffffffff16815260200190815260200160002060000160059054906101000a900473ffffffffffffffffffffffffffffffffffffffff1673ffffffffffffffffffffffffffffffffffffffff1614156104c3576040517f08c379a00000000000000000000000000000000000000000000000000000000081526004016104ba90612f46565b60405180910390fd5b61051e600360003373ffffffffffffffffffffffffffffffffffffffff1673ffffffffffffffffffffffffffffffffffffffff16815260200190815260200160002060000160159054906101000a900463ffffffff1661114b565b60001515600260008363ffffffff1663ffffffff16815260200190815260200160002060060160009054906101000a900460ff16151514610594576040517f08c379a000000000000000000000000000000000000000000000000000000000815260040161058b90612fb2565b60405180910390fd5b6001601c9054906101000a900463ffffffff1663ffffffff1660008054906101000a900473ffffffffffffffffffffffffffffffffffffffff1673ffffffffffffffffffffffffffffffffffffffff166370a08231336040518263ffffffff1660e01b81526004016106069190612fd2565b60206040518083038186803b15801561061e57600080fd5b505afa158015610632573d6000803e3d6000fd5b505050506040513d601f19601f820116820180604052508101906106569190613002565b1015610697576040517f08c379a000000000000000000000000000000000000000000000000000000000815260040161068e9061307b565b60405180910390fd5b60008054906101000a900473ffffffffffffffffffffffffffffffffffffffff1673ffffffffffffffffffffffffffffffffffffffff166323b872dd33306001601c9054906101000a900463ffffffff166040518463ffffffff1660e01b8152600401610706939291906130cc565b602060405180830381600087803b15801561072057600080fd5b505af1158015610734573d6000803e3d6000fd5b505050506040513d601f19601f82011682018060405250810190610758919061312f565b50600260008263ffffffff1663ffffffff168152602001908152602001600020600501600081548092919061078c9061318b565b919050555050565b600160149054906101000a900463ffffffff1681565b600160189054906101000a900463ffffffff1681565b60008054906101000a900473ffffffffffffffffffffffffffffffffffffffff1673ffffffffffffffffffffffffffffffffffffffff1663a9059cbb3360646040518363ffffffff1660e01b815260040161081c92919061320f565b602060405180830381600087803b15801561083657600080fd5b505af115801561084a573d6000803e3d6000fd5b505050506040513d601f19601f8201168201806040525081019061086e919061312f565b50565b60026020528060005260406000206000915090508060000160009054906101000a900460ff16908060000160019054906101000a900463ffffffff16908060000160059054906101000a900473ffffffffffffffffffffffffffffffffffffffff16908060010154908060020154908060030180546108ef90613267565b80601f016020809104026020016040519081016040528092919081815260200182805461091b90613267565b80156109685780601f1061093d57610100808354040283529160200191610968565b820191906000526020600020905b81548152906001019060200180831161094b57829003601f168201915b5050505050908060040154908060050154908060060160009054906101000a900460ff16905089565b600160009054906101000a900473ffffffffffffffffffffffffffffffffffffffff1681565b60008054906101000a900473ffffffffffffffffffffffffffffffffffffffff1681565b600360003373ffffffffffffffffffffffffffffffffffffffff1673ffffffffffffffffffffffffffffffffffffffff16815260200190815260200160002060000160009054906101000a900460ff16610a6a576040517f08c379a0000000000000000000000000000000000000000000000000000000008152600401610a6190612e48565b60405180910390fd5b6000600360003373ffffffffffffffffffffffffffffffffffffffff1673ffffffffffffffffffffffffffffffffffffffff1681526020019081526020016000206001015414610aef576040517f08c379a0000000000000000000000000000000000000000000000000000000008152600401610ae6906132e5565b60405180910390fd5b60038060003373ffffffffffffffffffffffffffffffffffffffff1673ffffffffffffffffffffffffffffffffffffffff16815260200190815260200160002060000160199054906101000a900460ff1660ff161015610b84576040517f08c379a0000000000000000000000000000000000000000000000000000000008152600401610b7b9061339d565b60405180910390fd5b600160009054906101000a900473ffffffffffffffffffffffffffffffffffffffff1673ffffffffffffffffffffffffffffffffffffffff1663fbdd25e4336040518263ffffffff1660e01b8152600401610bdf9190612fd2565b602060405180830381600087803b158015610bf957600080fd5b505af1158015610c0d573d6000803e3d6000fd5b505050506040513d601f19601f82011682018060405250810190610c319190613002565b600360003373ffffffffffffffffffffffffffffffffffffffff1673ffffffffffffffffffffffffffffffffffffffff168152602001908152602001600020600101819055507f03a53595f3c3e90873bbdbac6a9e4212b3beb77b04baeb37eda4a58b4c2eb4c7600360003373ffffffffffffffffffffffffffffffffffffffff1673ffffffffffffffffffffffffffffffffffffffff16815260200190815260200160002060010154604051610ce89190612b2c565b60405180910390a1565b6000600360003373ffffffffffffffffffffffffffffffffffffffff1673ffffffffffffffffffffffffffffffffffffffff16815260200190815260200160002060000160009054906101000a900460ff16610d83576040517f08c379a0000000000000000000000000000000000000000000000000000000008152600401610d7a90612e48565b60405180910390fd5b6000600360003373ffffffffffffffffffffffffffffffffffffffff1673ffffffffffffffffffffffffffffffffffffffff16815260200190815260200160002060000160159054906101000a900463ffffffff169050600260008263ffffffff1663ffffffff16815260200190815260200160002060000160009054906101000a900460ff16610e49576040517f08c379a0000000000000000000000000000000000000000000000000000000008152600401610e4090613409565b60405180910390fd5b610ea4600360003373ffffffffffffffffffffffffffffffffffffffff1673ffffffffffffffffffffffffffffffffffffffff16815260200190815260200160002060000160159054906101000a900463ffffffff1661114b565b600260008263ffffffff1663ffffffff16815260200190815260200160002060060160009054906101000a900460ff16610f13576040517f08c379a0000000000000000000000000000000000000000000000000000000008152600401610f0a90613475565b60405180910390fd5b600260008263ffffffff1663ffffffff16815260200190815260200160002060050154600260008363ffffffff1663ffffffff1681526020019081526020016000206004015411610f99576040517f08c379a0000000000000000000000000000000000000000000000000000000008152600401610f90906134e1565b60405180910390fd5b6000600160189054906101000a900463ffffffff1663ffffffff166001601c9054906101000a900463ffffffff1663ffffffff16600260008563ffffffff1663ffffffff16815260200190815260200160002060050154600260008663ffffffff1663ffffffff1681526020019081526020016000206004015461101d9190613501565b6110279190613557565b6110319190613501565b905060008054906101000a900473ffffffffffffffffffffffffffffffffffffffff1673ffffffffffffffffffffffffffffffffffffffff1663a9059cbb33836040518363ffffffff1660e01b815260040161108e9291906135b1565b602060405180830381600087803b1580156110a857600080fd5b505af11580156110bc573d6000803e3d6000fd5b505050506040513d601f19601f820116820180604052508101906110e0919061312f565b506000600360003373ffffffffffffffffffffffffffffffffffffffff1673ffffffffffffffffffffffffffffffffffffffff16815260200190815260200160002060000160156101000a81548163ffffffff021916908363ffffffff160217905550809250505090565b600260008263ffffffff1663ffffffff16815260200190815260200160002060060160009054906101000a900460ff161580156111d7575042600260008363ffffffff1663ffffffff16815260200190815260200160002060020154600260008463ffffffff1663ffffffff168152602001908152602001600020600101546111d49190613501565b11155b156113c7576001600260008363ffffffff1663ffffffff16815260200190815260200160002060060160006101000a81548160ff021916908315150217905550600260008263ffffffff1663ffffffff16815260200190815260200160002060040154600260008363ffffffff1663ffffffff168152602001908152602001600020600501541061130b57600060036000600260008563ffffffff1663ffffffff16815260200190815260200160002060000160059054906101000a900473ffffffffffffffffffffffffffffffffffffffff1673ffffffffffffffffffffffffffffffffffffffff1673ffffffffffffffffffffffffffffffffffffffff16815260200190815260200160002060000160156101000a81548163ffffffff021916908363ffffffff1602179055506113c6565b60036000600260008463ffffffff1663ffffffff16815260200190815260200160002060000160059054906101000a900473ffffffffffffffffffffffffffffffffffffffff1673ffffffffffffffffffffffffffffffffffffffff1673ffffffffffffffffffffffffffffffffffffffff168152602001908152602001600020600001601981819054906101000a900460ff16809291906113ac906135da565b91906101000a81548160ff021916908360ff160217905550505b5b50565b60036020528060005260406000206000915090508060000160009054906101000a900460ff16908060000160019054906101000a900473ffffffffffffffffffffffffffffffffffffffff16908060000160159054906101000a900463ffffffff16908060000160199054906101000a900460ff169080600001601a9054906101000a900463ffffffff16908060010154905086565b6001601c9054906101000a900463ffffffff1681565b60001515600360003373ffffffffffffffffffffffffffffffffffffffff1673ffffffffffffffffffffffffffffffffffffffff16815260200190815260200160002060000160009054906101000a900460ff1615151415611769576040518060e001604052806001151581526020013373ffffffffffffffffffffffffffffffffffffffff168152602001600063ffffffff168152602001600060ff168152602001600063ffffffff16815260200160008152602001600067ffffffffffffffff81111561154857611547612c49565b5b6040519080825280602002602001820160405280156115765781602001602082028036833780820191505090505b50815250600360003373ffffffffffffffffffffffffffffffffffffffff1673ffffffffffffffffffffffffffffffffffffffff16815260200190815260200160002060008201518160000160006101000a81548160ff02191690831515021790555060208201518160000160016101000a81548173ffffffffffffffffffffffffffffffffffffffff021916908373ffffffffffffffffffffffffffffffffffffffff16021790555060408201518160000160156101000a81548163ffffffff021916908363ffffffff16021790555060608201518160000160196101000a81548160ff021916908360ff160217905550608082015181600001601a6101000a81548163ffffffff021916908363ffffffff16021790555060a0820151816001015560c08201518160020190805190602001906116b59291906126da565b5090505060008054906101000a900473ffffffffffffffffffffffffffffffffffffffff1673ffffffffffffffffffffffffffffffffffffffff1663a9059cbb3360646040518363ffffffff1660e01b815260040161171592919061320f565b602060405180830381600087803b15801561172f57600080fd5b505af1158015611743573d6000803e3d6000fd5b505050506040513d601f19601f82011682018060405250810190611767919061312f565b505b565b60008060009054906101000a900473ffffffffffffffffffffffffffffffffffffffff1673ffffffffffffffffffffffffffffffffffffffff1663095ea7b33060c86040518363ffffffff1660e01b81526004016117ca92919061363f565b602060405180830381600087803b1580156117e457600080fd5b505af11580156117f8573d6000803e3d6000fd5b505050506040513d601f19601f8201168201806040525081019061181c919061312f565b5060008054906101000a900473ffffffffffffffffffffffffffffffffffffffff1673ffffffffffffffffffffffffffffffffffffffff1663095ea7b33360c86040518363ffffffff1660e01b815260040161187992919061363f565b602060405180830381600087803b15801561189357600080fd5b505af11580156118a7573d6000803e3d6000fd5b505050506040513d601f19601f820116820180604052508101906118cb919061312f565b5060008054906101000a900473ffffffffffffffffffffffffffffffffffffffff1673ffffffffffffffffffffffffffffffffffffffff1663dd62ed3e33306040518363ffffffff1660e01b8152600401611927929190613668565b60206040518083038186803b15801561193f57600080fd5b505afa158015611953573d6000803e3d6000fd5b505050506040513d601f19601f820116820180604052508101906119779190613002565b905090565b6060600260008363ffffffff1663ffffffff16815260200190815260200160002060000160009054906101000a900460ff166119ed576040517f08c379a00000000000000000000000000000000000000000000000000000000081526004016119e4906136dd565b60405180910390fd5b6119f68261114b565b600260008363ffffffff1663ffffffff16815260200190815260200160002060060160009054906101000a900460ff1615611af157600260008363ffffffff1663ffffffff16815260200190815260200160002060050154600260008463ffffffff1663ffffffff168152602001908152602001600020600401541115611ab4576040518060400160405280601781526020017f7468652070726f706f73616c73206973207061737365640000000000000000008152509050611b2a565b6040518060400160405280601981526020017f7468652070726f706f73616c732069732072656a6563746564000000000000008152509050611b2a565b6040518060400160405280601781526020017f7468652070726f706f73616c7320697320766f74696e6700000000000000000081525090505b919050565b600360003373ffffffffffffffffffffffffffffffffffffffff1673ffffffffffffffffffffffffffffffffffffffff16815260200190815260200160002060000160009054906101000a900460ff16611bbe576040517f08c379a0000000000000000000000000000000000000000000000000000000008152600401611bb590612e48565b60405180910390fd5b60011515600260008363ffffffff1663ffffffff16815260200190815260200160002060000160009054906101000a900460ff16151514611c34576040517f08c379a0000000000000000000000000000000000000000000000000000000008152600401611c2b90612eb4565b60405180910390fd5b3373ffffffffffffffffffffffffffffffffffffffff16600260008363ffffffff1663ffffffff16815260200190815260200160002060000160059054906101000a900473ffffffffffffffffffffffffffffffffffffffff1673ffffffffffffffffffffffffffffffffffffffff161415611ce5576040517f08c379a0000000000000000000000000000000000000000000000000000000008152600401611cdc90612f46565b60405180910390fd5b611d40600360003373ffffffffffffffffffffffffffffffffffffffff1673ffffffffffffffffffffffffffffffffffffffff16815260200190815260200160002060000160159054906101000a900463ffffffff1661114b565b60001515600260008363ffffffff1663ffffffff16815260200190815260200160002060060160009054906101000a900460ff16151514611db6576040517f08c379a0000000000000000000000000000000000000000000000000000000008152600401611dad90612fb2565b60405180910390fd5b6001601c9054906101000a900463ffffffff1663ffffffff1660008054906101000a900473ffffffffffffffffffffffffffffffffffffffff1673ffffffffffffffffffffffffffffffffffffffff166370a08231336040518263ffffffff1660e01b8152600401611e289190612fd2565b60206040518083038186803b158015611e4057600080fd5b505afa158015611e54573d6000803e3d6000fd5b505050506040513d601f19601f82011682018060405250810190611e789190613002565b1015611eb9576040517f08c379a0000000000000000000000000000000000000000000000000000000008152600401611eb09061307b565b60405180910390fd5b60008054906101000a900473ffffffffffffffffffffffffffffffffffffffff1673ffffffffffffffffffffffffffffffffffffffff166323b872dd33306001601c9054906101000a900463ffffffff166040518463ffffffff1660e01b8152600401611f28939291906130cc565b602060405180830381600087803b158015611f4257600080fd5b505af1158015611f56573d6000803e3d6000fd5b505050506040513d601f19601f82011682018060405250810190611f7a919061312f565b50600260008263ffffffff1663ffffffff1681526020019081526020016000206004016000815480929190611fae9061318b565b919050555050565b600360003373ffffffffffffffffffffffffffffffffffffffff1673ffffffffffffffffffffffffffffffffffffffff16815260200190815260200160002060000160009054906101000a900460ff16612045576040517f08c379a000000000000000000000000000000000000000000000000000000000815260040161203c90612e48565b60405180910390fd5b6000600360003373ffffffffffffffffffffffffffffffffffffffff1673ffffffffffffffffffffffffffffffffffffffff16815260200190815260200160002060000160159054906101000a900463ffffffff1663ffffffff161461210157612100600360003373ffffffffffffffffffffffffffffffffffffffff1673ffffffffffffffffffffffffffffffffffffffff16815260200190815260200160002060000160159054906101000a900463ffffffff1661114b565b5b6000600360003373ffffffffffffffffffffffffffffffffffffffff1673ffffffffffffffffffffffffffffffffffffffff16815260200190815260200160002060000160159054906101000a900463ffffffff1663ffffffff161461219c576040517f08c379a00000000000000000000000000000000000000000000000000000000081526004016121939061376f565b60405180910390fd5b600160189054906101000a900463ffffffff1663ffffffff1660008054906101000a900473ffffffffffffffffffffffffffffffffffffffff1673ffffffffffffffffffffffffffffffffffffffff1663dd62ed3e33306040518363ffffffff1660e01b8152600401612210929190613668565b60206040518083038186803b15801561222857600080fd5b505afa15801561223c573d6000803e3d6000fd5b505050506040513d601f19601f820116820180604052508101906122609190613002565b10156122a1576040517f08c379a00000000000000000000000000000000000000000000000000000000081526004016122989061307b565b60405180910390fd5b604051806101200160405280600115158152602001600160149054906101000a900463ffffffff1663ffffffff1681526020013373ffffffffffffffffffffffffffffffffffffffff16815260200142815260200182815260200183815260200160008152602001600081526020016000151581525060026000600160149054906101000a900463ffffffff1663ffffffff1663ffffffff16815260200190815260200160002060008201518160000160006101000a81548160ff02191690831515021790555060208201518160000160016101000a81548163ffffffff021916908363ffffffff16021790555060408201518160000160056101000a81548173ffffffffffffffffffffffffffffffffffffffff021916908373ffffffffffffffffffffffffffffffffffffffff160217905550606082015181600101556080820151816002015560a082015181600301908051906020019061240692919061278a565b5060c0820151816004015560e082015181600501556101008201518160060160006101000a81548160ff021916908315150217905550905050600160149054906101000a900463ffffffff16600360003373ffffffffffffffffffffffffffffffffffffffff1673ffffffffffffffffffffffffffffffffffffffff16815260200190815260200160002060000160156101000a81548163ffffffff021916908363ffffffff160217905550600360003373ffffffffffffffffffffffffffffffffffffffff1673ffffffffffffffffffffffffffffffffffffffff168152602001908152602001600020600001601a81819054906101000a900463ffffffff16809291906125149061378f565b91906101000a81548163ffffffff021916908363ffffffff16021790555050600360003373ffffffffffffffffffffffffffffffffffffffff1673ffffffffffffffffffffffffffffffffffffffff168152602001908152602001600020600201600160149054906101000a900463ffffffff1690806001815401808255809150506001900390600052602060002090600891828204019190066004029091909190916101000a81548163ffffffff021916908363ffffffff1602179055506001601481819054906101000a900463ffffffff16809291906125f59061378f565b91906101000a81548163ffffffff021916908363ffffffff1602179055505060008054906101000a900473ffffffffffffffffffffffffffffffffffffffff1673ffffffffffffffffffffffffffffffffffffffff166323b872dd3330600160189054906101000a900463ffffffff166040518463ffffffff1660e01b8152600401612683939291906130cc565b602060405180830381600087803b15801561269d57600080fd5b505af11580156126b1573d6000803e3d6000fd5b505050506040513d601f19601f820116820180604052508101906126d5919061312f565b505050565b828054828255906000526020600020906007016008900481019282156127795791602002820160005b8382111561274757835183826101000a81548163ffffffff021916908363ffffffff1602179055509260200192600401602081600301049283019260010302612703565b80156127775782816101000a81549063ffffffff0219169055600401602081600301049283019260010302612747565b505b5090506127869190612810565b5090565b82805461279690613267565b90600052602060002090601f0160209004810192826127b857600085556127ff565b82601f106127d157805160ff19168380011785556127ff565b828001600101855582156127ff579182015b828111156127fe5782518255916020019190600101906127e3565b5b50905061280c9190612810565b5090565b5b80821115612829576000816000905550600101612811565b5090565b6000604051905090565b600080fd5b600080fd5b600063ffffffff82169050919050565b61285a81612841565b811461286557600080fd5b50565b60008135905061287781612851565b92915050565b60006020828403121561289357612892612837565b5b60006128a184828501612868565b91505092915050565b6128b381612841565b82525050565b60006020820190506128ce60008301846128aa565b92915050565b60008115159050919050565b6128e9816128d4565b82525050565b600073ffffffffffffffffffffffffffffffffffffffff82169050919050565b600061291a826128ef565b9050919050565b61292a8161290f565b82525050565b6000819050919050565b61294381612930565b82525050565b600081519050919050565b600082825260208201905092915050565b60005b83811015612983578082015181840152602081019050612968565b83811115612992576000848401525b50505050565b6000601f19601f8301169050919050565b60006129b482612949565b6129be8185612954565b93506129ce818560208601612965565b6129d781612998565b840191505092915050565b6000610120820190506129f8600083018c6128e0565b612a05602083018b6128aa565b612a12604083018a612921565b612a1f606083018961293a565b612a2c608083018861293a565b81810360a0830152612a3e81876129a9565b9050612a4d60c083018661293a565b612a5a60e083018561293a565b612a686101008301846128e0565b9a9950505050505050505050565b6000819050919050565b6000612a9b612a96612a91846128ef565b612a76565b6128ef565b9050919050565b6000612aad82612a80565b9050919050565b6000612abf82612aa2565b9050919050565b612acf81612ab4565b82525050565b6000602082019050612aea6000830184612ac6565b92915050565b6000612afb82612aa2565b9050919050565b612b0b81612af0565b82525050565b6000602082019050612b266000830184612b02565b92915050565b6000602082019050612b41600083018461293a565b92915050565b612b508161290f565b8114612b5b57600080fd5b50565b600081359050612b6d81612b47565b92915050565b600060208284031215612b8957612b88612837565b5b6000612b9784828501612b5e565b91505092915050565b600060ff82169050919050565b612bb681612ba0565b82525050565b600060c082019050612bd160008301896128e0565b612bde6020830188612921565b612beb60408301876128aa565b612bf86060830186612bad565b612c0560808301856128aa565b612c1260a083018461293a565b979650505050505050565b60006020820190508181036000830152612c3781846129a9565b905092915050565b600080fd5b600080fd5b7f4e487b7100000000000000000000000000000000000000000000000000000000600052604160045260246000fd5b612c8182612998565b810181811067ffffffffffffffff82111715612ca057612c9f612c49565b5b80604052505050565b6000612cb361282d565b9050612cbf8282612c78565b919050565b600067ffffffffffffffff821115612cdf57612cde612c49565b5b612ce882612998565b9050602081019050919050565b82818337600083830152505050565b6000612d17612d1284612cc4565b612ca9565b905082815260208101848484011115612d3357612d32612c44565b5b612d3e848285612cf5565b509392505050565b600082601f830112612d5b57612d5a612c3f565b5b8135612d6b848260208601612d04565b91505092915050565b612d7d81612930565b8114612d8857600080fd5b50565b600081359050612d9a81612d74565b92915050565b60008060408385031215612db757612db6612837565b5b600083013567ffffffffffffffff811115612dd557612dd461283c565b5b612de185828601612d46565b9250506020612df285828601612d8b565b9150509250929050565b7f7573657220646f6e277420626520637265617465640000000000000000000000600082015250565b6000612e32601583612954565b9150612e3d82612dfc565b602082019050919050565b60006020820190508181036000830152612e6181612e25565b9050919050565b7f50726f706f73616c20646f6573206e6f74206578697374000000000000000000600082015250565b6000612e9e601783612954565b9150612ea982612e68565b602082019050919050565b60006020820190508181036000830152612ecd81612e91565b9050919050565b7f5468652073706f6e736f72206f66207468652070726f706f73616c2063616e6e60008201527f6f7420766f746500000000000000000000000000000000000000000000000000602082015250565b6000612f30602783612954565b9150612f3b82612ed4565b604082019050919050565b60006020820190508181036000830152612f5f81612f23565b9050919050565b7f50726f706f73616c20636c6f7365640000000000000000000000000000000000600082015250565b6000612f9c600f83612954565b9150612fa782612f66565b602082019050919050565b60006020820190508181036000830152612fcb81612f8f565b9050919050565b6000602082019050612fe76000830184612921565b92915050565b600081519050612ffc81612d74565b92915050565b60006020828403121561301857613017612837565b5b600061302684828501612fed565b91505092915050565b7f596f757220746f6b656e20697320696e73756666696369656e74000000000000600082015250565b6000613065601a83612954565b91506130708261302f565b602082019050919050565b6000602082019050818103600083015261309481613058565b9050919050565b60006130b66130b16130ac84612841565b612a76565b612930565b9050919050565b6130c68161309b565b82525050565b60006060820190506130e16000830186612921565b6130ee6020830185612921565b6130fb60408301846130bd565b949350505050565b61310c816128d4565b811461311757600080fd5b50565b60008151905061312981613103565b92915050565b60006020828403121561314557613144612837565b5b60006131538482850161311a565b91505092915050565b7f4e487b7100000000000000000000000000000000000000000000000000000000600052601160045260246000fd5b600061319682612930565b91507fffffffffffffffffffffffffffffffffffffffffffffffffffffffffffffffff8214156131c9576131c861315c565b5b600182019050919050565b6000819050919050565b60006131f96131f46131ef846131d4565b612a76565b612930565b9050919050565b613209816131de565b82525050565b60006040820190506132246000830185612921565b6132316020830184613200565b9392505050565b7f4e487b7100000000000000000000000000000000000000000000000000000000600052602260045260246000fd5b6000600282049050600182168061327f57607f821691505b6020821081141561329357613292613238565b5b50919050565b7f596f752068617665207265636569766564207468652072657761726400000000600082015250565b60006132cf601c83612954565b91506132da82613299565b602082019050919050565b600060208201905081810360008301526132fe816132c2565b9050919050565b7f546865206e756d626572206f662070726f706f73616c7320796f75206861766560008201527f206265656e20617070726f766564206973206c657373207468616e20332c206160208201527f6e6420796f752063616e6e6f7420726563656976652072657761726473000000604082015250565b6000613387605d83612954565b915061339282613305565b606082019050919050565b600060208201905081810360008301526133b68161337a565b9050919050565b7f5468652070726f706f73616c73206e6f74206578697374000000000000000000600082015250565b60006133f3601783612954565b91506133fe826133bd565b602082019050919050565b60006020820190508181036000830152613422816133e6565b9050919050565b7f7468652070726f706f73616c20697320766f74696e6700000000000000000000600082015250565b600061345f601683612954565b915061346a82613429565b602082019050919050565b6000602082019050818103600083015261348e81613452565b9050919050565b7f7468652070726f706f73616c2069732072656a65637465640000000000000000600082015250565b60006134cb601883612954565b91506134d682613495565b602082019050919050565b600060208201905081810360008301526134fa816134be565b9050919050565b600061350c82612930565b915061351783612930565b9250827fffffffffffffffffffffffffffffffffffffffffffffffffffffffffffffffff0382111561354c5761354b61315c565b5b828201905092915050565b600061356282612930565b915061356d83612930565b9250817fffffffffffffffffffffffffffffffffffffffffffffffffffffffffffffffff04831182151516156135a6576135a561315c565b5b828202905092915050565b60006040820190506135c66000830185612921565b6135d3602083018461293a565b9392505050565b60006135e582612ba0565b915060ff8214156135f9576135f861315c565b5b600182019050919050565b6000819050919050565b600061362961362461361f84613604565b612a76565b612930565b9050919050565b6136398161360e565b82525050565b60006040820190506136546000830185612921565b6136616020830184613630565b9392505050565b600060408201905061367d6000830185612921565b61368a6020830184612921565b9392505050565b7f7468652070726f706f73616c206e6f7420657869737400000000000000000000600082015250565b60006136c7601683612954565b91506136d282613691565b602082019050919050565b600060208201905081810360008301526136f6816136ba565b9050919050565b7f50726576696f75732070726f706f73616c732068617665206e6f74206265656e60008201527f20636f6d706c65746564206f7220726563656976656420726577617264730000602082015250565b6000613759603e83612954565b9150613764826136fd565b604082019050919050565b600060208201905081810360008301526137888161374c565b9050919050565b600061379a82612841565b915063ffffffff8214156137b1576137b061315c565b5b60018201905091905056fea2646970667358221220b82bf66ac3d25d200d2840762b5c6280389fb6fed92972a6f098820be4fb011364736f6c6343000809003360806040523480156200001157600080fd5b50604051620017af380380620017af833981810160405281019062000037919062000363565b6040518060400160405280600c81526020017f73747564656e74546f6b656e00000000000000000000000000000000000000008152506040518060400160405280600181526020017f30000000000000000000000000000000000000000000000000000000000000008152508160039080519060200190620000bb92919062000273565b508060049080519060200190620000d492919062000273565b505050620000e93382620000f060201b60201c565b5062000537565b600073ffffffffffffffffffffffffffffffffffffffff168273ffffffffffffffffffffffffffffffffffffffff16141562000163576040517f08c379a00000000000000000000000000000000000000000000000000000000081526004016200015a90620003f6565b60405180910390fd5b62000177600083836200026960201b60201c565b80600260008282546200018b919062000447565b92505081905550806000808473ffffffffffffffffffffffffffffffffffffffff1673ffffffffffffffffffffffffffffffffffffffff1681526020019081526020016000206000828254620001e2919062000447565b925050819055508173ffffffffffffffffffffffffffffffffffffffff16600073ffffffffffffffffffffffffffffffffffffffff167fddf252ad1be2c89b69c2b068fc378daa952ba7f163c4a11628f55a4df523b3ef83604051620002499190620004b5565b60405180910390a362000265600083836200026e60201b60201c565b5050565b505050565b505050565b828054620002819062000501565b90600052602060002090601f016020900481019282620002a55760008555620002f1565b82601f10620002c057805160ff1916838001178555620002f1565b82800160010185558215620002f1579182015b82811115620002f0578251825591602001919060010190620002d3565b5b50905062000300919062000304565b5090565b5b808211156200031f57600081600090555060010162000305565b5090565b600080fd5b6000819050919050565b6200033d8162000328565b81146200034957600080fd5b50565b6000815190506200035d8162000332565b92915050565b6000602082840312156200037c576200037b62000323565b5b60006200038c848285016200034c565b91505092915050565b600082825260208201905092915050565b7f45524332303a206d696e7420746f20746865207a65726f206164647265737300600082015250565b6000620003de601f8362000395565b9150620003eb82620003a6565b602082019050919050565b600060208201905081810360008301526200041181620003cf565b9050919050565b7f4e487b7100000000000000000000000000000000000000000000000000000000600052601160045260246000fd5b6000620004548262000328565b9150620004618362000328565b9250827fffffffffffffffffffffffffffffffffffffffffffffffffffffffffffffffff0382111562000499576200049862000418565b5b828201905092915050565b620004af8162000328565b82525050565b6000602082019050620004cc6000830184620004a4565b92915050565b7f4e487b7100000000000000000000000000000000000000000000000000000000600052602260045260246000fd5b600060028204905060018216806200051a57607f821691505b60208210811415620005315762000530620004d2565b5b50919050565b61126880620005476000396000f3fe608060405234801561001057600080fd5b50600436106100a95760003560e01c80633950935111610071578063395093511461016857806370a082311461019857806395d89b41146101c8578063a457c2d7146101e6578063a9059cbb14610216578063dd62ed3e14610246576100a9565b806306fdde03146100ae578063095ea7b3146100cc57806318160ddd146100fc57806323b872dd1461011a578063313ce5671461014a575b600080fd5b6100b6610276565b6040516100c39190610b22565b60405180910390f35b6100e660048036038101906100e19190610bdd565b610308565b6040516100f39190610c38565b60405180910390f35b61010461032b565b6040516101119190610c62565b60405180910390f35b610134600480360381019061012f9190610c7d565b610335565b6040516101419190610c38565b60405180910390f35b610152610364565b60405161015f9190610cec565b60405180910390f35b610182600480360381019061017d9190610bdd565b61036d565b60405161018f9190610c38565b60405180910390f35b6101b260048036038101906101ad9190610d07565b6103a4565b6040516101bf9190610c62565b60405180910390f35b6101d06103ec565b6040516101dd9190610b22565b60405180910390f35b61020060048036038101906101fb9190610bdd565b61047e565b60405161020d9190610c38565b60405180910390f35b610230600480360381019061022b9190610bdd565b6104f5565b60405161023d9190610c38565b60405180910390f35b610260600480360381019061025b9190610d34565b610518565b60405161026d9190610c62565b60405180910390f35b60606003805461028590610da3565b80601f01602080910402602001604051908101604052809291908181526020018280546102b190610da3565b80156102fe5780601f106102d3576101008083540402835291602001916102fe565b820191906000526020600020905b8154815290600101906020018083116102e157829003601f168201915b5050505050905090565b60008061031361059f565b90506103208185856105a7565b600191505092915050565b6000600254905090565b60008061034061059f565b905061034d858285610772565b6103588585856107fe565b60019150509392505050565b60006012905090565b60008061037861059f565b905061039981858561038a8589610518565b6103949190610e04565b6105a7565b600191505092915050565b60008060008373ffffffffffffffffffffffffffffffffffffffff1673ffffffffffffffffffffffffffffffffffffffff168152602001908152602001600020549050919050565b6060600480546103fb90610da3565b80601f016020809104026020016040519081016040528092919081815260200182805461042790610da3565b80156104745780601f1061044957610100808354040283529160200191610474565b820191906000526020600020905b81548152906001019060200180831161045757829003601f168201915b5050505050905090565b60008061048961059f565b905060006104978286610518565b9050838110156104dc576040517f08c379a00000000000000000000000000000000000000000000000000000000081526004016104d390610ecc565b60405180910390fd5b6104e982868684036105a7565b60019250505092915050565b60008061050061059f565b905061050d8185856107fe565b600191505092915050565b6000600160008473ffffffffffffffffffffffffffffffffffffffff1673ffffffffffffffffffffffffffffffffffffffff16815260200190815260200160002060008373ffffffffffffffffffffffffffffffffffffffff1673ffffffffffffffffffffffffffffffffffffffff16815260200190815260200160002054905092915050565b600033905090565b600073ffffffffffffffffffffffffffffffffffffffff168373ffffffffffffffffffffffffffffffffffffffff161415610617576040517f08c379a000000000000000000000000000000000000000000000000000000000815260040161060e90610f5e565b60405180910390fd5b600073ffffffffffffffffffffffffffffffffffffffff168273ffffffffffffffffffffffffffffffffffffffff161415610687576040517f08c379a000000000000000000000000000000000000000000000000000000000815260040161067e90610ff0565b60405180910390fd5b80600160008573ffffffffffffffffffffffffffffffffffffffff1673ffffffffffffffffffffffffffffffffffffffff16815260200190815260200160002060008473ffffffffffffffffffffffffffffffffffffffff1673ffffffffffffffffffffffffffffffffffffffff168152602001908152602001600020819055508173ffffffffffffffffffffffffffffffffffffffff168373ffffffffffffffffffffffffffffffffffffffff167f8c5be1e5ebec7d5bd14f71427d1e84f3dd0314c0f7b2291e5b200ac8c7c3b925836040516107659190610c62565b60405180910390a3505050565b600061077e8484610518565b90507fffffffffffffffffffffffffffffffffffffffffffffffffffffffffffffffff81146107f857818110156107ea576040517f08c379a00000000000000000000000000000000000000000000000000000000081526004016107e19061105c565b60405180910390fd5b6107f784848484036105a7565b5b50505050565b600073ffffffffffffffffffffffffffffffffffffffff168373ffffffffffffffffffffffffffffffffffffffff16141561086e576040517f08c379a0000000000000000000000000000000000000000000000000000000008152600401610865906110ee565b60405180910390fd5b600073ffffffffffffffffffffffffffffffffffffffff168273ffffffffffffffffffffffffffffffffffffffff1614156108de576040517f08c379a00000000000000000000000000000000000000000000000000000000081526004016108d590611180565b60405180910390fd5b6108e9838383610a7f565b60008060008573ffffffffffffffffffffffffffffffffffffffff1673ffffffffffffffffffffffffffffffffffffffff1681526020019081526020016000205490508181101561096f576040517f08c379a000000000000000000000000000000000000000000000000000000000815260040161096690611212565b60405180910390fd5b8181036000808673ffffffffffffffffffffffffffffffffffffffff1673ffffffffffffffffffffffffffffffffffffffff16815260200190815260200160002081905550816000808573ffffffffffffffffffffffffffffffffffffffff1673ffffffffffffffffffffffffffffffffffffffff1681526020019081526020016000206000828254610a029190610e04565b925050819055508273ffffffffffffffffffffffffffffffffffffffff168473ffffffffffffffffffffffffffffffffffffffff167fddf252ad1be2c89b69c2b068fc378daa952ba7f163c4a11628f55a4df523b3ef84604051610a669190610c62565b60405180910390a3610a79848484610a84565b50505050565b505050565b505050565b600081519050919050565b600082825260208201905092915050565b60005b83811015610ac3578082015181840152602081019050610aa8565b83811115610ad2576000848401525b50505050565b6000601f19601f8301169050919050565b6000610af482610a89565b610afe8185610a94565b9350610b0e818560208601610aa5565b610b1781610ad8565b840191505092915050565b60006020820190508181036000830152610b3c8184610ae9565b905092915050565b600080fd5b600073ffffffffffffffffffffffffffffffffffffffff82169050919050565b6000610b7482610b49565b9050919050565b610b8481610b69565b8114610b8f57600080fd5b50565b600081359050610ba181610b7b565b92915050565b6000819050919050565b610bba81610ba7565b8114610bc557600080fd5b50565b600081359050610bd781610bb1565b92915050565b60008060408385031215610bf457610bf3610b44565b5b6000610c0285828601610b92565b9250506020610c1385828601610bc8565b9150509250929050565b60008115159050919050565b610c3281610c1d565b82525050565b6000602082019050610c4d6000830184610c29565b92915050565b610c5c81610ba7565b82525050565b6000602082019050610c776000830184610c53565b92915050565b600080600060608486031215610c9657610c95610b44565b5b6000610ca486828701610b92565b9350506020610cb586828701610b92565b9250506040610cc686828701610bc8565b9150509250925092565b600060ff82169050919050565b610ce681610cd0565b82525050565b6000602082019050610d016000830184610cdd565b92915050565b600060208284031215610d1d57610d1c610b44565b5b6000610d2b84828501610b92565b91505092915050565b60008060408385031215610d4b57610d4a610b44565b5b6000610d5985828601610b92565b9250506020610d6a85828601610b92565b9150509250929050565b7f4e487b7100000000000000000000000000000000000000000000000000000000600052602260045260246000fd5b60006002820490506001821680610dbb57607f821691505b60208210811415610dcf57610dce610d74565b5b50919050565b7f4e487b7100000000000000000000000000000000000000000000000000000000600052601160045260246000fd5b6000610e0f82610ba7565b9150610e1a83610ba7565b9250827fffffffffffffffffffffffffffffffffffffffffffffffffffffffffffffffff03821115610e4f57610e4e610dd5565b5b828201905092915050565b7f45524332303a2064656372656173656420616c6c6f77616e63652062656c6f7760008201527f207a65726f000000000000000000000000000000000000000000000000000000602082015250565b6000610eb6602583610a94565b9150610ec182610e5a565b604082019050919050565b60006020820190508181036000830152610ee581610ea9565b9050919050565b7f45524332303a20617070726f76652066726f6d20746865207a65726f2061646460008201527f7265737300000000000000000000000000000000000000000000000000000000602082015250565b6000610f48602483610a94565b9150610f5382610eec565b604082019050919050565b60006020820190508181036000830152610f7781610f3b565b9050919050565b7f45524332303a20617070726f766520746f20746865207a65726f20616464726560008201527f7373000000000000000000000000000000000000000000000000000000000000602082015250565b6000610fda602283610a94565b9150610fe582610f7e565b604082019050919050565b6000602082019050818103600083015261100981610fcd565b9050919050565b7f45524332303a20696e73756666696369656e7420616c6c6f77616e6365000000600082015250565b6000611046601d83610a94565b915061105182611010565b602082019050919050565b6000602082019050818103600083015261107581611039565b9050919050565b7f45524332303a207472616e736665722066726f6d20746865207a65726f20616460008201527f6472657373000000000000000000000000000000000000000000000000000000602082015250565b60006110d8602583610a94565b91506110e38261107c565b604082019050919050565b60006020820190508181036000830152611107816110cb565b9050919050565b7f45524332303a207472616e7366657220746f20746865207a65726f206164647260008201527f6573730000000000000000000000000000000000000000000000000000000000602082015250565b600061116a602383610a94565b91506111758261110e565b604082019050919050565b600060208201905081810360008301526111998161115d565b9050919050565b7f45524332303a207472616e7366657220616d6f756e742065786365656473206260008201527f616c616e63650000000000000000000000000000000000000000000000000000602082015250565b60006111fc602683610a94565b9150611207826111a0565b604082019050919050565b6000602082019050818103600083015261122b816111ef565b905091905056fea2646970667358221220a83b696c1545a9dcf27f60a2c4f85f7209659e528aa7e3cd529e426d1472bb8264736f6c6343000809003360806040523480156200001157600080fd5b506040518060400160405280600b81526020017f53747564656e744974656d0000000000000000000000000000000000000000008152506040518060400160405280600381526020017f49544d000000000000000000000000000000000000000000000000000000000081525081600090805190602001906200009692919062000101565b508060019080519060200190620000af92919062000101565b50505033600660006101000a81548173ffffffffffffffffffffffffffffffffffffffff021916908373ffffffffffffffffffffffffffffffffffffffff160217905550600160078190555062000216565b8280546200010f90620001e0565b90600052602060002090601f0160209004810192826200013357600085556200017f565b82601f106200014e57805160ff19168380011785556200017f565b828001600101855582156200017f579182015b828111156200017e57825182559160200191906001019062000161565b5b5090506200018e919062000192565b5090565b5b80821115620001ad57600081600090555060010162000193565b5090565b7f4e487b7100000000000000000000000000000000000000000000000000000000600052602260045260246000fd5b60006002820490506001821680620001f957607f821691505b6020821081141562000210576200020f620001b1565b5b50919050565b61250e80620002266000396000f3fe608060405234801561001057600080fd5b50600436106100f55760003560e01c806370a0823111610097578063b88d4fde11610066578063b88d4fde14610284578063c87b56dd146102a0578063e985e9c5146102d0578063fbdd25e414610300576100f5565b806370a08231146101fc5780638da5cb5b1461022c57806395d89b411461024a578063a22cb46514610268576100f5565b8063095ea7b3116100d3578063095ea7b31461017857806323b872dd1461019457806342842e0e146101b05780636352211e146101cc576100f5565b806301ffc9a7146100fa57806306fdde031461012a578063081812fc14610148575b600080fd5b610114600480360381019061010f919061166d565b610330565b60405161012191906116b5565b60405180910390f35b610132610412565b60405161013f9190611769565b60405180910390f35b610162600480360381019061015d91906117c1565b6104a4565b60405161016f919061182f565b60405180910390f35b610192600480360381019061018d9190611876565b6104ea565b005b6101ae60048036038101906101a991906118b6565b610602565b005b6101ca60048036038101906101c591906118b6565b610662565b005b6101e660048036038101906101e191906117c1565b610682565b6040516101f3919061182f565b60405180910390f35b61021660048036038101906102119190611909565b610734565b6040516102239190611945565b60405180910390f35b6102346107ec565b604051610241919061182f565b60405180910390f35b610252610812565b60405161025f9190611769565b60405180910390f35b610282600480360381019061027d919061198c565b6108a4565b005b61029e60048036038101906102999190611b01565b6108ba565b005b6102ba60048036038101906102b591906117c1565b61091c565b6040516102c79190611769565b60405180910390f35b6102ea60048036038101906102e59190611b84565b610984565b6040516102f791906116b5565b60405180910390f35b61031a60048036038101906103159190611909565b610a18565b6040516103279190611945565b60405180910390f35b60007f80ac58cd000000000000000000000000000000000000000000000000000000007bffffffffffffffffffffffffffffffffffffffffffffffffffffffff1916827bffffffffffffffffffffffffffffffffffffffffffffffffffffffff191614806103fb57507f5b5e139f000000000000000000000000000000000000000000000000000000007bffffffffffffffffffffffffffffffffffffffffffffffffffffffff1916827bffffffffffffffffffffffffffffffffffffffffffffffffffffffff1916145b8061040b575061040a82610a44565b5b9050919050565b60606000805461042190611bf3565b80601f016020809104026020016040519081016040528092919081815260200182805461044d90611bf3565b801561049a5780601f1061046f5761010080835404028352916020019161049a565b820191906000526020600020905b81548152906001019060200180831161047d57829003601f168201915b5050505050905090565b60006104af82610aae565b6004600083815260200190815260200160002060009054906101000a900473ffffffffffffffffffffffffffffffffffffffff169050919050565b60006104f582610682565b90508073ffffffffffffffffffffffffffffffffffffffff168373ffffffffffffffffffffffffffffffffffffffff161415610566576040517f08c379a000000000000000000000000000000000000000000000000000000000815260040161055d90611c97565b60405180910390fd5b8073ffffffffffffffffffffffffffffffffffffffff16610585610af9565b73ffffffffffffffffffffffffffffffffffffffff1614806105b457506105b3816105ae610af9565b610984565b5b6105f3576040517f08c379a00000000000000000000000000000000000000000000000000000000081526004016105ea90611d29565b60405180910390fd5b6105fd8383610b01565b505050565b61061361060d610af9565b82610bba565b610652576040517f08c379a000000000000000000000000000000000000000000000000000000000815260040161064990611dbb565b60405180910390fd5b61065d838383610c4f565b505050565b61067d838383604051806020016040528060008152506108ba565b505050565b6000806002600084815260200190815260200160002060009054906101000a900473ffffffffffffffffffffffffffffffffffffffff169050600073ffffffffffffffffffffffffffffffffffffffff168173ffffffffffffffffffffffffffffffffffffffff16141561072b576040517f08c379a000000000000000000000000000000000000000000000000000000000815260040161072290611e27565b60405180910390fd5b80915050919050565b60008073ffffffffffffffffffffffffffffffffffffffff168273ffffffffffffffffffffffffffffffffffffffff1614156107a5576040517f08c379a000000000000000000000000000000000000000000000000000000000815260040161079c90611eb9565b60405180910390fd5b600360008373ffffffffffffffffffffffffffffffffffffffff1673ffffffffffffffffffffffffffffffffffffffff168152602001908152602001600020549050919050565b600660009054906101000a900473ffffffffffffffffffffffffffffffffffffffff1681565b60606001805461082190611bf3565b80601f016020809104026020016040519081016040528092919081815260200182805461084d90611bf3565b801561089a5780601f1061086f5761010080835404028352916020019161089a565b820191906000526020600020905b81548152906001019060200180831161087d57829003601f168201915b5050505050905090565b6108b66108af610af9565b8383610eb6565b5050565b6108cb6108c5610af9565b83610bba565b61090a576040517f08c379a000000000000000000000000000000000000000000000000000000000815260040161090190611dbb565b60405180910390fd5b61091684848484611023565b50505050565b606061092782610aae565b600061093161107f565b90506000815111610951576040518060200160405280600081525061097c565b8061095b84611096565b60405160200161096c929190611f15565b6040516020818303038152906040525b915050919050565b6000600560008473ffffffffffffffffffffffffffffffffffffffff1673ffffffffffffffffffffffffffffffffffffffff16815260200190815260200160002060008373ffffffffffffffffffffffffffffffffffffffff1673ffffffffffffffffffffffffffffffffffffffff16815260200190815260200160002060009054906101000a900460ff16905092915050565b6000610a26826007546111f7565b60076000815480929190610a3990611f68565b919050559050919050565b60007f01ffc9a7000000000000000000000000000000000000000000000000000000007bffffffffffffffffffffffffffffffffffffffffffffffffffffffff1916827bffffffffffffffffffffffffffffffffffffffffffffffffffffffff1916149050919050565b610ab7816113d1565b610af6576040517f08c379a0000000000000000000000000000000000000000000000000000000008152600401610aed90611e27565b60405180910390fd5b50565b600033905090565b816004600083815260200190815260200160002060006101000a81548173ffffffffffffffffffffffffffffffffffffffff021916908373ffffffffffffffffffffffffffffffffffffffff160217905550808273ffffffffffffffffffffffffffffffffffffffff16610b7483610682565b73ffffffffffffffffffffffffffffffffffffffff167f8c5be1e5ebec7d5bd14f71427d1e84f3dd0314c0f7b2291e5b200ac8c7c3b92560405160405180910390a45050565b600080610bc683610682565b90508073ffffffffffffffffffffffffffffffffffffffff168473ffffffffffffffffffffffffffffffffffffffff161480610c085750610c078185610984565b5b80610c4657508373ffffffffffffffffffffffffffffffffffffffff16610c2e846104a4565b73ffffffffffffffffffffffffffffffffffffffff16145b91505092915050565b8273ffffffffffffffffffffffffffffffffffffffff16610c6f82610682565b73ffffffffffffffffffffffffffffffffffffffff1614610cc5576040517f08c379a0000000000000000000000000000000000000000000000000000000008152600401610cbc90612023565b60405180910390fd5b600073ffffffffffffffffffffffffffffffffffffffff168273ffffffffffffffffffffffffffffffffffffffff161415610d35576040517f08c379a0000000000000000000000000000000000000000000000000000000008152600401610d2c906120b5565b60405180910390fd5b610d4083838361143d565b610d4b600082610b01565b6001600360008573ffffffffffffffffffffffffffffffffffffffff1673ffffffffffffffffffffffffffffffffffffffff1681526020019081526020016000206000828254610d9b91906120d5565b925050819055506001600360008473ffffffffffffffffffffffffffffffffffffffff1673ffffffffffffffffffffffffffffffffffffffff1681526020019081526020016000206000828254610df29190612109565b92505081905550816002600083815260200190815260200160002060006101000a81548173ffffffffffffffffffffffffffffffffffffffff021916908373ffffffffffffffffffffffffffffffffffffffff160217905550808273ffffffffffffffffffffffffffffffffffffffff168473ffffffffffffffffffffffffffffffffffffffff167fddf252ad1be2c89b69c2b068fc378daa952ba7f163c4a11628f55a4df523b3ef60405160405180910390a4610eb1838383611442565b505050565b8173ffffffffffffffffffffffffffffffffffffffff168373ffffffffffffffffffffffffffffffffffffffff161415610f25576040517f08c379a0000000000000000000000000000000000000000000000000000000008152600401610f1c906121ab565b60405180910390fd5b80600560008573ffffffffffffffffffffffffffffffffffffffff1673ffffffffffffffffffffffffffffffffffffffff16815260200190815260200160002060008473ffffffffffffffffffffffffffffffffffffffff1673ffffffffffffffffffffffffffffffffffffffff16815260200190815260200160002060006101000a81548160ff0219169083151502179055508173ffffffffffffffffffffffffffffffffffffffff168373ffffffffffffffffffffffffffffffffffffffff167f17307eab39ab6107e8899845ad3d59bd9653f200f220920489ca2b5937696c318360405161101691906116b5565b60405180910390a3505050565b61102e848484610c4f565b61103a84848484611447565b611079576040517f08c379a00000000000000000000000000000000000000000000000000000000081526004016110709061223d565b60405180910390fd5b50505050565b606060405180602001604052806000815250905090565b606060008214156110de576040518060400160405280600181526020017f300000000000000000000000000000000000000000000000000000000000000081525090506111f2565b600082905060005b600082146111105780806110f990611f68565b915050600a82611109919061228c565b91506110e6565b60008167ffffffffffffffff81111561112c5761112b6119d6565b5b6040519080825280601f01601f19166020018201604052801561115e5781602001600182028036833780820191505090505b5090505b600085146111eb5760018261117791906120d5565b9150600a8561118691906122bd565b60306111929190612109565b60f81b8183815181106111a8576111a76122ee565b5b60200101907effffffffffffffffffffffffffffffffffffffffffffffffffffffffffffff1916908160001a905350600a856111e4919061228c565b9450611162565b8093505050505b919050565b600073ffffffffffffffffffffffffffffffffffffffff168273ffffffffffffffffffffffffffffffffffffffff161415611267576040517f08c379a000000000000000000000000000000000000000000000000000000000815260040161125e90612369565b60405180910390fd5b611270816113d1565b156112b0576040517f08c379a00000000000000000000000000000000000000000000000000000000081526004016112a7906123d5565b60405180910390fd5b6112bc6000838361143d565b6001600360008473ffffffffffffffffffffffffffffffffffffffff1673ffffffffffffffffffffffffffffffffffffffff168152602001908152602001600020600082825461130c9190612109565b92505081905550816002600083815260200190815260200160002060006101000a81548173ffffffffffffffffffffffffffffffffffffffff021916908373ffffffffffffffffffffffffffffffffffffffff160217905550808273ffffffffffffffffffffffffffffffffffffffff16600073ffffffffffffffffffffffffffffffffffffffff167fddf252ad1be2c89b69c2b068fc378daa952ba7f163c4a11628f55a4df523b3ef60405160405180910390a46113cd60008383611442565b5050565b60008073ffffffffffffffffffffffffffffffffffffffff166002600084815260200190815260200160002060009054906101000a900473ffffffffffffffffffffffffffffffffffffffff1673ffffffffffffffffffffffffffffffffffffffff1614159050919050565b505050565b505050565b60006114688473ffffffffffffffffffffffffffffffffffffffff166115de565b156115d1578373ffffffffffffffffffffffffffffffffffffffff1663150b7a02611491610af9565b8786866040518563ffffffff1660e01b81526004016114b3949392919061244a565b602060405180830381600087803b1580156114cd57600080fd5b505af19250505080156114fe57506040513d601f19601f820116820180604052508101906114fb91906124ab565b60015b611581573d806000811461152e576040519150601f19603f3d011682016040523d82523d6000602084013e611533565b606091505b50600081511415611579576040517f08c379a00000000000000000000000000000000000000000000000000000000081526004016115709061223d565b60405180910390fd5b805181602001fd5b63150b7a0260e01b7bffffffffffffffffffffffffffffffffffffffffffffffffffffffff1916817bffffffffffffffffffffffffffffffffffffffffffffffffffffffff1916149150506115d6565b600190505b949350505050565b6000808273ffffffffffffffffffffffffffffffffffffffff163b119050919050565b6000604051905090565b600080fd5b600080fd5b60007fffffffff0000000000000000000000000000000000000000000000000000000082169050919050565b61164a81611615565b811461165557600080fd5b50565b60008135905061166781611641565b92915050565b6000602082840312156116835761168261160b565b5b600061169184828501611658565b91505092915050565b60008115159050919050565b6116af8161169a565b82525050565b60006020820190506116ca60008301846116a6565b92915050565b600081519050919050565b600082825260208201905092915050565b60005b8381101561170a5780820151818401526020810190506116ef565b83811115611719576000848401525b50505050565b6000601f19601f8301169050919050565b600061173b826116d0565b61174581856116db565b93506117558185602086016116ec565b61175e8161171f565b840191505092915050565b600060208201905081810360008301526117838184611730565b905092915050565b6000819050919050565b61179e8161178b565b81146117a957600080fd5b50565b6000813590506117bb81611795565b92915050565b6000602082840312156117d7576117d661160b565b5b60006117e5848285016117ac565b91505092915050565b600073ffffffffffffffffffffffffffffffffffffffff82169050919050565b6000611819826117ee565b9050919050565b6118298161180e565b82525050565b60006020820190506118446000830184611820565b92915050565b6118538161180e565b811461185e57600080fd5b50565b6000813590506118708161184a565b92915050565b6000806040838503121561188d5761188c61160b565b5b600061189b85828601611861565b92505060206118ac858286016117ac565b9150509250929050565b6000806000606084860312156118cf576118ce61160b565b5b60006118dd86828701611861565b93505060206118ee86828701611861565b92505060406118ff868287016117ac565b9150509250925092565b60006020828403121561191f5761191e61160b565b5b600061192d84828501611861565b91505092915050565b61193f8161178b565b82525050565b600060208201905061195a6000830184611936565b92915050565b6119698161169a565b811461197457600080fd5b50565b60008135905061198681611960565b92915050565b600080604083850312156119a3576119a261160b565b5b60006119b185828601611861565b92505060206119c285828601611977565b9150509250929050565b600080fd5b600080fd5b7f4e487b7100000000000000000000000000000000000000000000000000000000600052604160045260246000fd5b611a0e8261171f565b810181811067ffffffffffffffff82111715611a2d57611a2c6119d6565b5b80604052505050565b6000611a40611601565b9050611a4c8282611a05565b919050565b600067ffffffffffffffff821115611a6c57611a6b6119d6565b5b611a758261171f565b9050602081019050919050565b82818337600083830152505050565b6000611aa4611a9f84611a51565b611a36565b905082815260208101848484011115611ac057611abf6119d1565b5b611acb848285611a82565b509392505050565b600082601f830112611ae857611ae76119cc565b5b8135611af8848260208601611a91565b91505092915050565b60008060008060808587031215611b1b57611b1a61160b565b5b6000611b2987828801611861565b9450506020611b3a87828801611861565b9350506040611b4b878288016117ac565b925050606085013567ffffffffffffffff811115611b6c57611b6b611610565b5b611b7887828801611ad3565b91505092959194509250565b60008060408385031215611b9b57611b9a61160b565b5b6000611ba985828601611861565b9250506020611bba85828601611861565b9150509250929050565b7f4e487b7100000000000000000000000000000000000000000000000000000000600052602260045260246000fd5b60006002820490506001821680611c0b57607f821691505b60208210811415611c1f57611c1e611bc4565b5b50919050565b7f4552433732313a20617070726f76616c20746f2063757272656e74206f776e6560008201527f7200000000000000000000000000000000000000000000000000000000000000602082015250565b6000611c816021836116db565b9150611c8c82611c25565b604082019050919050565b60006020820190508181036000830152611cb081611c74565b9050919050565b7f4552433732313a20617070726f76652063616c6c6572206973206e6f7420746f60008201527f6b656e206f776e6572206e6f7220617070726f76656420666f7220616c6c0000602082015250565b6000611d13603e836116db565b9150611d1e82611cb7565b604082019050919050565b60006020820190508181036000830152611d4281611d06565b9050919050565b7f4552433732313a2063616c6c6572206973206e6f7420746f6b656e206f776e6560008201527f72206e6f7220617070726f766564000000000000000000000000000000000000602082015250565b6000611da5602e836116db565b9150611db082611d49565b604082019050919050565b60006020820190508181036000830152611dd481611d98565b9050919050565b7f4552433732313a20696e76616c696420746f6b656e2049440000000000000000600082015250565b6000611e116018836116db565b9150611e1c82611ddb565b602082019050919050565b60006020820190508181036000830152611e4081611e04565b9050919050565b7f4552433732313a2061646472657373207a65726f206973206e6f74206120766160008201527f6c6964206f776e65720000000000000000000000000000000000000000000000602082015250565b6000611ea36029836116db565b9150611eae82611e47565b604082019050919050565b60006020820190508181036000830152611ed281611e96565b9050919050565b600081905092915050565b6000611eef826116d0565b611ef98185611ed9565b9350611f098185602086016116ec565b80840191505092915050565b6000611f218285611ee4565b9150611f2d8284611ee4565b91508190509392505050565b7f4e487b7100000000000000000000000000000000000000000000000000000000600052601160045260246000fd5b6000611f738261178b565b91507fffffffffffffffffffffffffffffffffffffffffffffffffffffffffffffffff821415611fa657611fa5611f39565b5b600182019050919050565b7f4552433732313a207472616e736665722066726f6d20696e636f72726563742060008201527f6f776e6572000000000000000000000000000000000000000000000000000000602082015250565b600061200d6025836116db565b915061201882611fb1565b604082019050919050565b6000602082019050818103600083015261203c81612000565b9050919050565b7f4552433732313a207472616e7366657220746f20746865207a65726f2061646460008201527f7265737300000000000000000000000000000000000000000000000000000000602082015250565b600061209f6024836116db565b91506120aa82612043565b604082019050919050565b600060208201905081810360008301526120ce81612092565b9050919050565b60006120e08261178b565b91506120eb8361178b565b9250828210156120fe576120fd611f39565b5b828203905092915050565b60006121148261178b565b915061211f8361178b565b9250827fffffffffffffffffffffffffffffffffffffffffffffffffffffffffffffffff0382111561215457612153611f39565b5b828201905092915050565b7f4552433732313a20617070726f766520746f2063616c6c657200000000000000600082015250565b60006121956019836116db565b91506121a08261215f565b602082019050919050565b600060208201905081810360008301526121c481612188565b9050919050565b7f4552433732313a207472616e7366657220746f206e6f6e20455243373231526560008201527f63656976657220696d706c656d656e7465720000000000000000000000000000602082015250565b60006122276032836116db565b9150612232826121cb565b604082019050919050565b600060208201905081810360008301526122568161221a565b9050919050565b7f4e487b7100000000000000000000000000000000000000000000000000000000600052601260045260246000fd5b60006122978261178b565b91506122a28361178b565b9250826122b2576122b161225d565b5b828204905092915050565b60006122c88261178b565b91506122d38361178b565b9250826122e3576122e261225d565b5b828206905092915050565b7f4e487b7100000000000000000000000000000000000000000000000000000000600052603260045260246000fd5b7f4552433732313a206d696e7420746f20746865207a65726f2061646472657373600082015250565b60006123536020836116db565b915061235e8261231d565b602082019050919050565b6000602082019050818103600083015261238281612346565b9050919050565b7f4552433732313a20746f6b656e20616c7265616479206d696e74656400000000600082015250565b60006123bf601c836116db565b91506123ca82612389565b602082019050919050565b600060208201905081810360008301526123ee816123b2565b9050919050565b600081519050919050565b600082825260208201905092915050565b600061241c826123f5565b6124268185612400565b93506124368185602086016116ec565b61243f8161171f565b840191505092915050565b600060808201905061245f6000830187611820565b61246c6020830186611820565b6124796040830185611936565b818103606083015261248b8184612411565b905095945050505050565b6000815190506124a581611641565b92915050565b6000602082840312156124c1576124c061160b565b5b60006124cf84828501612496565b9150509291505056fea26469706673582212205fc43adf350564d06115a3ac1ac8930f4d4f5a6b9fe144a7701a091b8bb9bb4664736f6c63430008090033",
  "linkReferences": {},
  "deployedLinkReferences": {}
}