{
  "_format": "hh-sol-artifact-1",
  "contractName": "StudentItem",
  "sourceName": "contracts/StudentSocietyDAO.sol",
  "abi": [
    {
      "inputs": [],
      "stateMutability": "nonpayable",
      "type": "constructor"
    },
    {
      "anonymous": false,
      "inputs": [
        {
          "indexed": true,
          "internalType": "address",
          "name": "owner",
          "type": "address"
        },
        {
          "indexed": true,
          "internalType": "address",
          "name": "approved",
          "type": "address"
        },
        {
          "indexed": true,
          "internalType": "uint256",
          "name": "tokenId",
          "type": "uint256"
        }
      ],
      "name": "Approval",
      "type": "event"
    },
    {
      "anonymous": false,
      "inputs": [
        {
          "indexed": true,
          "internalType": "address",
          "name": "owner",
          "type": "address"
        },
        {
          "indexed": true,
          "internalType": "address",
          "name": "operator",
          "type": "address"
        },
        {
          "indexed": false,
          "internalType": "bool",
          "name": "approved",
          "type": "bool"
        }
      ],
      "name": "ApprovalForAll",
      "type": "event"
    },
    {
      "anonymous": false,
      "inputs": [
        {
          "indexed": true,
          "internalType": "address",
          "name": "from",
          "type": "address"
        },
        {
          "indexed": true,
          "internalType": "address",
          "name": "to",
          "type": "address"
        },
        {
          "indexed": true,
          "internalType": "uint256",
          "name": "tokenId",
          "type": "uint256"
        }
      ],
      "name": "Transfer",
      "type": "event"
    },
    {
      "inputs": [
        {
          "internalType": "address",
          "name": "to",
          "type": "address"
        },
        {
          "internalType": "uint256",
          "name": "tokenId",
          "type": "uint256"
        }
      ],
      "name": "approve",
      "outputs": [],
      "stateMutability": "nonpayable",
      "type": "function"
    },
    {
      "inputs": [
        {
          "internalType": "address",
          "name": "to",
          "type": "address"
        }
      ],
      "name": "award",
      "outputs": [
        {
          "internalType": "uint256",
          "name": "",
          "type": "uint256"
        }
      ],
      "stateMutability": "nonpayable",
      "type": "function"
    },
    {
      "inputs": [
        {
          "internalType": "address",
          "name": "owner",
          "type": "address"
        }
      ],
      "name": "balanceOf",
      "outputs": [
        {
          "internalType": "uint256",
          "name": "",
          "type": "uint256"
        }
      ],
      "stateMutability": "view",
      "type": "function"
    },
    {
      "inputs": [
        {
          "internalType": "uint256",
          "name": "tokenId",
          "type": "uint256"
        }
      ],
      "name": "getApproved",
      "outputs": [
        {
          "internalType": "address",
          "name": "",
          "type": "address"
        }
      ],
      "stateMutability": "view",
      "type": "function"
    },
    {
      "inputs": [
        {
          "internalType": "address",
          "name": "owner",
          "type": "address"
        },
        {
          "internalType": "address",
          "name": "operator",
          "type": "address"
        }
      ],
      "name": "isApprovedForAll",
      "outputs": [
        {
          "internalType": "bool",
          "name": "",
          "type": "bool"
        }
      ],
      "stateMutability": "view",
      "type": "function"
    },
    {
      "inputs": [],
      "name": "name",
      "outputs": [
        {
          "internalType": "string",
          "name": "",
          "type": "string"
        }
      ],
      "stateMutability": "view",
      "type": "function"
    },
    {
      "inputs": [],
      "name": "owner",
      "outputs": [
        {
          "internalType": "address",
          "name": "",
          "type": "address"
        }
      ],
      "stateMutability": "view",
      "type": "function"
    },
    {
      "inputs": [
        {
          "internalType": "uint256",
          "name": "tokenId",
          "type": "uint256"
        }
      ],
      "name": "ownerOf",
      "outputs": [
        {
          "internalType": "address",
          "name": "",
          "type": "address"
        }
      ],
      "stateMutability": "view",
      "type": "function"
    },
    {
      "inputs": [
        {
          "internalType": "address",
          "name": "from",
          "type": "address"
        },
        {
          "internalType": "address",
          "name": "to",
          "type": "address"
        },
        {
          "internalType": "uint256",
          "name": "tokenId",
          "type": "uint256"
        }
      ],
      "name": "safeTransferFrom",
      "outputs": [],
      "stateMutability": "nonpayable",
      "type": "function"
    },
    {
      "inputs": [
        {
          "internalType": "address",
          "name": "from",
          "type": "address"
        },
        {
          "internalType": "address",
          "name": "to",
          "type": "address"
        },
        {
          "internalType": "uint256",
          "name": "tokenId",
          "type": "uint256"
        },
        {
          "internalType": "bytes",
          "name": "data",
          "type": "bytes"
        }
      ],
      "name": "safeTransferFrom",
      "outputs": [],
      "stateMutability": "nonpayable",
      "type": "function"
    },
    {
      "inputs": [
        {
          "internalType": "address",
          "name": "operator",
          "type": "address"
        },
        {
          "internalType": "bool",
          "name": "approved",
          "type": "bool"
        }
      ],
      "name": "setApprovalForAll",
      "outputs": [],
      "stateMutability": "nonpayable",
      "type": "function"
    },
    {
      "inputs": [
        {
          "internalType": "bytes4",
          "name": "interfaceId",
          "type": "bytes4"
        }
      ],
      "name": "supportsInterface",
      "outputs": [
        {
          "internalType": "bool",
          "name": "",
          "type": "bool"
        }
      ],
      "stateMutability": "view",
      "type": "function"
    },
    {
      "inputs": [],
      "name": "symbol",
      "outputs": [
        {
          "internalType": "string",
          "name": "",
          "type": "string"
        }
      ],
      "stateMutability": "view",
      "type": "function"
    },
    {
      "inputs": [
        {
          "internalType": "uint256",
          "name": "tokenId",
          "type": "uint256"
        }
      ],
      "name": "tokenURI",
      "outputs": [
        {
          "internalType": "string",
          "name": "",
          "type": "string"
        }
      ],
      "stateMutability": "view",
      "type": "function"
    },
    {
      "inputs": [
        {
          "internalType": "address",
          "name": "from",
          "type": "address"
        },
        {
          "internalType": "address",
          "name": "to",
          "type": "address"
        },
        {
          "internalType": "uint256",
          "name": "tokenId",
          "type": "uint256"
        }
      ],
      "name": "transferFrom",
      "outputs": [],
      "stateMutability": "nonpayable",
      "type": "function"
    }
  ],
  "bytecode": "0x60806040523480156200001157600080fd5b506040518060400160405280600b81526020017f53747564656e744974656d0000000000000000000000000000000000000000008152506040518060400160405280600381526020017f49544d000000000000000000000000000000000000000000000000000000000081525081600090805190602001906200009692919062000101565b508060019080519060200190620000af92919062000101565b50505033600660006101000a81548173ffffffffffffffffffffffffffffffffffffffff021916908373ffffffffffffffffffffffffffffffffffffffff160217905550600160078190555062000216565b8280546200010f90620001e0565b90600052602060002090601f0160209004810192826200013357600085556200017f565b82601f106200014e57805160ff19168380011785556200017f565b828001600101855582156200017f579182015b828111156200017e57825182559160200191906001019062000161565b5b5090506200018e919062000192565b5090565b5b80821115620001ad57600081600090555060010162000193565b5090565b7f4e487b7100000000000000000000000000000000000000000000000000000000600052602260045260246000fd5b60006002820490506001821680620001f957607f821691505b6020821081141562000210576200020f620001b1565b5b50919050565b61250e80620002266000396000f3fe608060405234801561001057600080fd5b50600436106100f55760003560e01c806370a0823111610097578063b88d4fde11610066578063b88d4fde14610284578063c87b56dd146102a0578063e985e9c5146102d0578063fbdd25e414610300576100f5565b806370a08231146101fc5780638da5cb5b1461022c57806395d89b411461024a578063a22cb46514610268576100f5565b8063095ea7b3116100d3578063095ea7b31461017857806323b872dd1461019457806342842e0e146101b05780636352211e146101cc576100f5565b806301ffc9a7146100fa57806306fdde031461012a578063081812fc14610148575b600080fd5b610114600480360381019061010f919061166d565b610330565b60405161012191906116b5565b60405180910390f35b610132610412565b60405161013f9190611769565b60405180910390f35b610162600480360381019061015d91906117c1565b6104a4565b60405161016f919061182f565b60405180910390f35b610192600480360381019061018d9190611876565b6104ea565b005b6101ae60048036038101906101a991906118b6565b610602565b005b6101ca60048036038101906101c591906118b6565b610662565b005b6101e660048036038101906101e191906117c1565b610682565b6040516101f3919061182f565b60405180910390f35b61021660048036038101906102119190611909565b610734565b6040516102239190611945565b60405180910390f35b6102346107ec565b604051610241919061182f565b60405180910390f35b610252610812565b60405161025f9190611769565b60405180910390f35b610282600480360381019061027d919061198c565b6108a4565b005b61029e60048036038101906102999190611b01565b6108ba565b005b6102ba60048036038101906102b591906117c1565b61091c565b6040516102c79190611769565b60405180910390f35b6102ea60048036038101906102e59190611b84565b610984565b6040516102f791906116b5565b60405180910390f35b61031a60048036038101906103159190611909565b610a18565b6040516103279190611945565b60405180910390f35b60007f80ac58cd000000000000000000000000000000000000000000000000000000007bffffffffffffffffffffffffffffffffffffffffffffffffffffffff1916827bffffffffffffffffffffffffffffffffffffffffffffffffffffffff191614806103fb57507f5b5e139f000000000000000000000000000000000000000000000000000000007bffffffffffffffffffffffffffffffffffffffffffffffffffffffff1916827bffffffffffffffffffffffffffffffffffffffffffffffffffffffff1916145b8061040b575061040a82610a44565b5b9050919050565b60606000805461042190611bf3565b80601f016020809104026020016040519081016040528092919081815260200182805461044d90611bf3565b801561049a5780601f1061046f5761010080835404028352916020019161049a565b820191906000526020600020905b81548152906001019060200180831161047d57829003601f168201915b5050505050905090565b60006104af82610aae565b6004600083815260200190815260200160002060009054906101000a900473ffffffffffffffffffffffffffffffffffffffff169050919050565b60006104f582610682565b90508073ffffffffffffffffffffffffffffffffffffffff168373ffffffffffffffffffffffffffffffffffffffff161415610566576040517f08c379a000000000000000000000000000000000000000000000000000000000815260040161055d90611c97565b60405180910390fd5b8073ffffffffffffffffffffffffffffffffffffffff16610585610af9565b73ffffffffffffffffffffffffffffffffffffffff1614806105b457506105b3816105ae610af9565b610984565b5b6105f3576040517f08c379a00000000000000000000000000000000000000000000000000000000081526004016105ea90611d29565b60405180910390fd5b6105fd8383610b01565b505050565b61061361060d610af9565b82610bba565b610652576040517f08c379a000000000000000000000000000000000000000000000000000000000815260040161064990611dbb565b60405180910390fd5b61065d838383610c4f565b505050565b61067d838383604051806020016040528060008152506108ba565b505050565b6000806002600084815260200190815260200160002060009054906101000a900473ffffffffffffffffffffffffffffffffffffffff169050600073ffffffffffffffffffffffffffffffffffffffff168173ffffffffffffffffffffffffffffffffffffffff16141561072b576040517f08c379a000000000000000000000000000000000000000000000000000000000815260040161072290611e27565b60405180910390fd5b80915050919050565b60008073ffffffffffffffffffffffffffffffffffffffff168273ffffffffffffffffffffffffffffffffffffffff1614156107a5576040517f08c379a000000000000000000000000000000000000000000000000000000000815260040161079c90611eb9565b60405180910390fd5b600360008373ffffffffffffffffffffffffffffffffffffffff1673ffffffffffffffffffffffffffffffffffffffff168152602001908152602001600020549050919050565b600660009054906101000a900473ffffffffffffffffffffffffffffffffffffffff1681565b60606001805461082190611bf3565b80601f016020809104026020016040519081016040528092919081815260200182805461084d90611bf3565b801561089a5780601f1061086f5761010080835404028352916020019161089a565b820191906000526020600020905b81548152906001019060200180831161087d57829003601f168201915b5050505050905090565b6108b66108af610af9565b8383610eb6565b5050565b6108cb6108c5610af9565b83610bba565b61090a576040517f08c379a000000000000000000000000000000000000000000000000000000000815260040161090190611dbb565b60405180910390fd5b61091684848484611023565b50505050565b606061092782610aae565b600061093161107f565b90506000815111610951576040518060200160405280600081525061097c565b8061095b84611096565b60405160200161096c929190611f15565b6040516020818303038152906040525b915050919050565b6000600560008473ffffffffffffffffffffffffffffffffffffffff1673ffffffffffffffffffffffffffffffffffffffff16815260200190815260200160002060008373ffffffffffffffffffffffffffffffffffffffff1673ffffffffffffffffffffffffffffffffffffffff16815260200190815260200160002060009054906101000a900460ff16905092915050565b6000610a26826007546111f7565b60076000815480929190610a3990611f68565b919050559050919050565b60007f01ffc9a7000000000000000000000000000000000000000000000000000000007bffffffffffffffffffffffffffffffffffffffffffffffffffffffff1916827bffffffffffffffffffffffffffffffffffffffffffffffffffffffff1916149050919050565b610ab7816113d1565b610af6576040517f08c379a0000000000000000000000000000000000000000000000000000000008152600401610aed90611e27565b60405180910390fd5b50565b600033905090565b816004600083815260200190815260200160002060006101000a81548173ffffffffffffffffffffffffffffffffffffffff021916908373ffffffffffffffffffffffffffffffffffffffff160217905550808273ffffffffffffffffffffffffffffffffffffffff16610b7483610682565b73ffffffffffffffffffffffffffffffffffffffff167f8c5be1e5ebec7d5bd14f71427d1e84f3dd0314c0f7b2291e5b200ac8c7c3b92560405160405180910390a45050565b600080610bc683610682565b90508073ffffffffffffffffffffffffffffffffffffffff168473ffffffffffffffffffffffffffffffffffffffff161480610c085750610c078185610984565b5b80610c4657508373ffffffffffffffffffffffffffffffffffffffff16610c2e846104a4565b73ffffffffffffffffffffffffffffffffffffffff16145b91505092915050565b8273ffffffffffffffffffffffffffffffffffffffff16610c6f82610682565b73ffffffffffffffffffffffffffffffffffffffff1614610cc5576040517f08c379a0000000000000000000000000000000000000000000000000000000008152600401610cbc90612023565b60405180910390fd5b600073ffffffffffffffffffffffffffffffffffffffff168273ffffffffffffffffffffffffffffffffffffffff161415610d35576040517f08c379a0000000000000000000000000000000000000000000000000000000008152600401610d2c906120b5565b60405180910390fd5b610d4083838361143d565b610d4b600082610b01565b6001600360008573ffffffffffffffffffffffffffffffffffffffff1673ffffffffffffffffffffffffffffffffffffffff1681526020019081526020016000206000828254610d9b91906120d5565b925050819055506001600360008473ffffffffffffffffffffffffffffffffffffffff1673ffffffffffffffffffffffffffffffffffffffff1681526020019081526020016000206000828254610df29190612109565b92505081905550816002600083815260200190815260200160002060006101000a81548173ffffffffffffffffffffffffffffffffffffffff021916908373ffffffffffffffffffffffffffffffffffffffff160217905550808273ffffffffffffffffffffffffffffffffffffffff168473ffffffffffffffffffffffffffffffffffffffff167fddf252ad1be2c89b69c2b068fc378daa952ba7f163c4a11628f55a4df523b3ef60405160405180910390a4610eb1838383611442565b505050565b8173ffffffffffffffffffffffffffffffffffffffff168373ffffffffffffffffffffffffffffffffffffffff161415610f25576040517f08c379a0000000000000000000000000000000000000000000000000000000008152600401610f1c906121ab565b60405180910390fd5b80600560008573ffffffffffffffffffffffffffffffffffffffff1673ffffffffffffffffffffffffffffffffffffffff16815260200190815260200160002060008473ffffffffffffffffffffffffffffffffffffffff1673ffffffffffffffffffffffffffffffffffffffff16815260200190815260200160002060006101000a81548160ff0219169083151502179055508173ffffffffffffffffffffffffffffffffffffffff168373ffffffffffffffffffffffffffffffffffffffff167f17307eab39ab6107e8899845ad3d59bd9653f200f220920489ca2b5937696c318360405161101691906116b5565b60405180910390a3505050565b61102e848484610c4f565b61103a84848484611447565b611079576040517f08c379a00000000000000000000000000000000000000000000000000000000081526004016110709061223d565b60405180910390fd5b50505050565b606060405180602001604052806000815250905090565b606060008214156110de576040518060400160405280600181526020017f300000000000000000000000000000000000000000000000000000000000000081525090506111f2565b600082905060005b600082146111105780806110f990611f68565b915050600a82611109919061228c565b91506110e6565b60008167ffffffffffffffff81111561112c5761112b6119d6565b5b6040519080825280601f01601f19166020018201604052801561115e5781602001600182028036833780820191505090505b5090505b600085146111eb5760018261117791906120d5565b9150600a8561118691906122bd565b60306111929190612109565b60f81b8183815181106111a8576111a76122ee565b5b60200101907effffffffffffffffffffffffffffffffffffffffffffffffffffffffffffff1916908160001a905350600a856111e4919061228c565b9450611162565b8093505050505b919050565b600073ffffffffffffffffffffffffffffffffffffffff168273ffffffffffffffffffffffffffffffffffffffff161415611267576040517f08c379a000000000000000000000000000000000000000000000000000000000815260040161125e90612369565b60405180910390fd5b611270816113d1565b156112b0576040517f08c379a00000000000000000000000000000000000000000000000000000000081526004016112a7906123d5565b60405180910390fd5b6112bc6000838361143d565b6001600360008473ffffffffffffffffffffffffffffffffffffffff1673ffffffffffffffffffffffffffffffffffffffff168152602001908152602001600020600082825461130c9190612109565b92505081905550816002600083815260200190815260200160002060006101000a81548173ffffffffffffffffffffffffffffffffffffffff021916908373ffffffffffffffffffffffffffffffffffffffff160217905550808273ffffffffffffffffffffffffffffffffffffffff16600073ffffffffffffffffffffffffffffffffffffffff167fddf252ad1be2c89b69c2b068fc378daa952ba7f163c4a11628f55a4df523b3ef60405160405180910390a46113cd60008383611442565b5050565b60008073ffffffffffffffffffffffffffffffffffffffff166002600084815260200190815260200160002060009054906101000a900473ffffffffffffffffffffffffffffffffffffffff1673ffffffffffffffffffffffffffffffffffffffff1614159050919050565b505050565b505050565b60006114688473ffffffffffffffffffffffffffffffffffffffff166115de565b156115d1578373ffffffffffffffffffffffffffffffffffffffff1663150b7a02611491610af9565b8786866040518563ffffffff1660e01b81526004016114b3949392919061244a565b602060405180830381600087803b1580156114cd57600080fd5b505af19250505080156114fe57506040513d601f19601f820116820180604052508101906114fb91906124ab565b60015b611581573d806000811461152e576040519150601f19603f3d011682016040523d82523d6000602084013e611533565b606091505b50600081511415611579576040517f08c379a00000000000000000000000000000000000000000000000000000000081526004016115709061223d565b60405180910390fd5b805181602001fd5b63150b7a0260e01b7bffffffffffffffffffffffffffffffffffffffffffffffffffffffff1916817bffffffffffffffffffffffffffffffffffffffffffffffffffffffff1916149150506115d6565b600190505b949350505050565b6000808273ffffffffffffffffffffffffffffffffffffffff163b119050919050565b6000604051905090565b600080fd5b600080fd5b60007fffffffff0000000000000000000000000000000000000000000000000000000082169050919050565b61164a81611615565b811461165557600080fd5b50565b60008135905061166781611641565b92915050565b6000602082840312156116835761168261160b565b5b600061169184828501611658565b91505092915050565b60008115159050919050565b6116af8161169a565b82525050565b60006020820190506116ca60008301846116a6565b92915050565b600081519050919050565b600082825260208201905092915050565b60005b8381101561170a5780820151818401526020810190506116ef565b83811115611719576000848401525b50505050565b6000601f19601f8301169050919050565b600061173b826116d0565b61174581856116db565b93506117558185602086016116ec565b61175e8161171f565b840191505092915050565b600060208201905081810360008301526117838184611730565b905092915050565b6000819050919050565b61179e8161178b565b81146117a957600080fd5b50565b6000813590506117bb81611795565b92915050565b6000602082840312156117d7576117d661160b565b5b60006117e5848285016117ac565b91505092915050565b600073ffffffffffffffffffffffffffffffffffffffff82169050919050565b6000611819826117ee565b9050919050565b6118298161180e565b82525050565b60006020820190506118446000830184611820565b92915050565b6118538161180e565b811461185e57600080fd5b50565b6000813590506118708161184a565b92915050565b6000806040838503121561188d5761188c61160b565b5b600061189b85828601611861565b92505060206118ac858286016117ac565b9150509250929050565b6000806000606084860312156118cf576118ce61160b565b5b60006118dd86828701611861565b93505060206118ee86828701611861565b92505060406118ff868287016117ac565b9150509250925092565b60006020828403121561191f5761191e61160b565b5b600061192d84828501611861565b91505092915050565b61193f8161178b565b82525050565b600060208201905061195a6000830184611936565b92915050565b6119698161169a565b811461197457600080fd5b50565b60008135905061198681611960565b92915050565b600080604083850312156119a3576119a261160b565b5b60006119b185828601611861565b92505060206119c285828601611977565b9150509250929050565b600080fd5b600080fd5b7f4e487b7100000000000000000000000000000000000000000000000000000000600052604160045260246000fd5b611a0e8261171f565b810181811067ffffffffffffffff82111715611a2d57611a2c6119d6565b5b80604052505050565b6000611a40611601565b9050611a4c8282611a05565b919050565b600067ffffffffffffffff821115611a6c57611a6b6119d6565b5b611a758261171f565b9050602081019050919050565b82818337600083830152505050565b6000611aa4611a9f84611a51565b611a36565b905082815260208101848484011115611ac057611abf6119d1565b5b611acb848285611a82565b509392505050565b600082601f830112611ae857611ae76119cc565b5b8135611af8848260208601611a91565b91505092915050565b60008060008060808587031215611b1b57611b1a61160b565b5b6000611b2987828801611861565b9450506020611b3a87828801611861565b9350506040611b4b878288016117ac565b925050606085013567ffffffffffffffff811115611b6c57611b6b611610565b5b611b7887828801611ad3565b91505092959194509250565b60008060408385031215611b9b57611b9a61160b565b5b6000611ba985828601611861565b9250506020611bba85828601611861565b9150509250929050565b7f4e487b7100000000000000000000000000000000000000000000000000000000600052602260045260246000fd5b60006002820490506001821680611c0b57607f821691505b60208210811415611c1f57611c1e611bc4565b5b50919050565b7f4552433732313a20617070726f76616c20746f2063757272656e74206f776e6560008201527f7200000000000000000000000000000000000000000000000000000000000000602082015250565b6000611c816021836116db565b9150611c8c82611c25565b604082019050919050565b60006020820190508181036000830152611cb081611c74565b9050919050565b7f4552433732313a20617070726f76652063616c6c6572206973206e6f7420746f60008201527f6b656e206f776e6572206e6f7220617070726f76656420666f7220616c6c0000602082015250565b6000611d13603e836116db565b9150611d1e82611cb7565b604082019050919050565b60006020820190508181036000830152611d4281611d06565b9050919050565b7f4552433732313a2063616c6c6572206973206e6f7420746f6b656e206f776e6560008201527f72206e6f7220617070726f766564000000000000000000000000000000000000602082015250565b6000611da5602e836116db565b9150611db082611d49565b604082019050919050565b60006020820190508181036000830152611dd481611d98565b9050919050565b7f4552433732313a20696e76616c696420746f6b656e2049440000000000000000600082015250565b6000611e116018836116db565b9150611e1c82611ddb565b602082019050919050565b60006020820190508181036000830152611e4081611e04565b9050919050565b7f4552433732313a2061646472657373207a65726f206973206e6f74206120766160008201527f6c6964206f776e65720000000000000000000000000000000000000000000000602082015250565b6000611ea36029836116db565b9150611eae82611e47565b604082019050919050565b60006020820190508181036000830152611ed281611e96565b9050919050565b600081905092915050565b6000611eef826116d0565b611ef98185611ed9565b9350611f098185602086016116ec565b80840191505092915050565b6000611f218285611ee4565b9150611f2d8284611ee4565b91508190509392505050565b7f4e487b7100000000000000000000000000000000000000000000000000000000600052601160045260246000fd5b6000611f738261178b565b91507fffffffffffffffffffffffffffffffffffffffffffffffffffffffffffffffff821415611fa657611fa5611f39565b5b600182019050919050565b7f4552433732313a207472616e736665722066726f6d20696e636f72726563742060008201527f6f776e6572000000000000000000000000000000000000000000000000000000602082015250565b600061200d6025836116db565b915061201882611fb1565b604082019050919050565b6000602082019050818103600083015261203c81612000565b9050919050565b7f4552433732313a207472616e7366657220746f20746865207a65726f2061646460008201527f7265737300000000000000000000000000000000000000000000000000000000602082015250565b600061209f6024836116db565b91506120aa82612043565b604082019050919050565b600060208201905081810360008301526120ce81612092565b9050919050565b60006120e08261178b565b91506120eb8361178b565b9250828210156120fe576120fd611f39565b5b828203905092915050565b60006121148261178b565b915061211f8361178b565b9250827fffffffffffffffffffffffffffffffffffffffffffffffffffffffffffffffff0382111561215457612153611f39565b5b828201905092915050565b7f4552433732313a20617070726f766520746f2063616c6c657200000000000000600082015250565b60006121956019836116db565b91506121a08261215f565b602082019050919050565b600060208201905081810360008301526121c481612188565b9050919050565b7f4552433732313a207472616e7366657220746f206e6f6e20455243373231526560008201527f63656976657220696d706c656d656e7465720000000000000000000000000000602082015250565b60006122276032836116db565b9150612232826121cb565b604082019050919050565b600060208201905081810360008301526122568161221a565b9050919050565b7f4e487b7100000000000000000000000000000000000000000000000000000000600052601260045260246000fd5b60006122978261178b565b91506122a28361178b565b9250826122b2576122b161225d565b5b828204905092915050565b60006122c88261178b565b91506122d38361178b565b9250826122e3576122e261225d565b5b828206905092915050565b7f4e487b7100000000000000000000000000000000000000000000000000000000600052603260045260246000fd5b7f4552433732313a206d696e7420746f20746865207a65726f2061646472657373600082015250565b60006123536020836116db565b915061235e8261231d565b602082019050919050565b6000602082019050818103600083015261238281612346565b9050919050565b7f4552433732313a20746f6b656e20616c7265616479206d696e74656400000000600082015250565b60006123bf601c836116db565b91506123ca82612389565b602082019050919050565b600060208201905081810360008301526123ee816123b2565b9050919050565b600081519050919050565b600082825260208201905092915050565b600061241c826123f5565b6124268185612400565b93506124368185602086016116ec565b61243f8161171f565b840191505092915050565b600060808201905061245f6000830187611820565b61246c6020830186611820565b6124796040830185611936565b818103606083015261248b8184612411565b905095945050505050565b6000815190506124a581611641565b92915050565b6000602082840312156124c1576124c061160b565b5b60006124cf84828501612496565b9150509291505056fea26469706673582212205fc43adf350564d06115a3ac1ac8930f4d4f5a6b9fe144a7701a091b8bb9bb4664736f6c63430008090033",
  "linkReferences": {},
  "deployedLinkReferences": {}
}